{
  "_format": "hh-sol-artifact-1",
  "contractName": "Complaint",
  "sourceName": "contracts/Complaint.sol",
  "abi": [
    {
      "inputs": [
        {
          "internalType": "address",
          "name": "_officer",
          "type": "address"
        }
      ],
      "stateMutability": "nonpayable",
      "type": "constructor"
    },
    {
      "anonymous": false,
      "inputs": [
        {
          "indexed": false,
          "internalType": "uint256",
          "name": "id",
          "type": "uint256"
        },
        {
          "indexed": false,
          "internalType": "address",
          "name": "complaintRegisteredBy",
          "type": "address"
        },
        {
          "indexed": false,
          "internalType": "string",
          "name": "title",
          "type": "string"
        }
      ],
      "name": "complaintFiled",
      "type": "event"
    },
    {
      "inputs": [
        {
          "internalType": "uint256",
          "name": "",
          "type": "uint256"
        }
      ],
      "name": "Complaints",
      "outputs": [
        {
          "internalType": "uint256",
          "name": "id",
          "type": "uint256"
        },
        {
          "internalType": "address",
          "name": "complaintRegisteredBy",
          "type": "address"
        },
        {
          "internalType": "string",
          "name": "title",
          "type": "string"
        },
        {
          "internalType": "string",
          "name": "description",
          "type": "string"
        },
        {
          "internalType": "string",
          "name": "approvalRemark",
          "type": "string"
        },
        {
          "internalType": "string",
          "name": "resolutionRemark",
          "type": "string"
        },
        {
          "internalType": "bool",
          "name": "isApproved",
          "type": "bool"
        },
        {
          "internalType": "bool",
          "name": "isResolved",
          "type": "bool"
        },
        {
          "internalType": "bool",
          "name": "exists",
          "type": "bool"
        }
      ],
      "stateMutability": "view",
      "type": "function"
    },
    {
      "inputs": [
        {
          "internalType": "uint256",
          "name": "_id",
          "type": "uint256"
        },
        {
          "internalType": "string",
          "name": "_approvalRemark",
          "type": "string"
        }
      ],
      "name": "approveComplaint",
      "outputs": [],
      "stateMutability": "nonpayable",
      "type": "function"
    },
    {
      "inputs": [],
      "name": "calcPendingApprovalIds",
      "outputs": [],
      "stateMutability": "nonpayable",
      "type": "function"
    },
    {
      "inputs": [],
      "name": "calcPendingResolutionIds",
      "outputs": [],
      "stateMutability": "nonpayable",
      "type": "function"
    },
    {
      "inputs": [],
      "name": "calcResolvedIds",
      "outputs": [],
      "stateMutability": "nonpayable",
      "type": "function"
    },
    {
      "inputs": [
        {
          "internalType": "uint256",
          "name": "_id",
          "type": "uint256"
        },
        {
          "internalType": "string",
          "name": "_approvalRemark",
          "type": "string"
        }
      ],
      "name": "discardComplaint",
      "outputs": [],
      "stateMutability": "nonpayable",
      "type": "function"
    },
    {
      "inputs": [
        {
          "internalType": "string",
          "name": "_title",
          "type": "string"
        },
        {
          "internalType": "string",
          "name": "_description",
          "type": "string"
        }
      ],
      "name": "fileComplaint",
      "outputs": [],
      "stateMutability": "nonpayable",
      "type": "function"
    },
    {
      "inputs": [],
      "name": "nextId",
      "outputs": [
        {
          "internalType": "uint256",
          "name": "",
          "type": "uint256"
        }
      ],
      "stateMutability": "view",
      "type": "function"
    },
    {
      "inputs": [],
      "name": "officer",
      "outputs": [
        {
          "internalType": "address",
          "name": "",
          "type": "address"
        }
      ],
      "stateMutability": "view",
      "type": "function"
    },
    {
      "inputs": [],
      "name": "owner",
      "outputs": [
        {
          "internalType": "address",
          "name": "",
          "type": "address"
        }
      ],
      "stateMutability": "view",
      "type": "function"
    },
    {
      "inputs": [
        {
          "internalType": "uint256",
          "name": "",
          "type": "uint256"
        }
      ],
      "name": "pendingApprovals",
      "outputs": [
        {
          "internalType": "uint256",
          "name": "",
          "type": "uint256"
        }
      ],
      "stateMutability": "view",
      "type": "function"
    },
    {
      "inputs": [
        {
          "internalType": "uint256",
          "name": "",
          "type": "uint256"
        }
      ],
      "name": "pendingResolutions",
      "outputs": [
        {
          "internalType": "uint256",
          "name": "",
          "type": "uint256"
        }
      ],
      "stateMutability": "view",
      "type": "function"
    },
    {
      "inputs": [
        {
          "internalType": "uint256",
          "name": "_id",
          "type": "uint256"
        },
        {
          "internalType": "string",
          "name": "_resolutionRemark",
          "type": "string"
        }
      ],
      "name": "resolveComplaint",
      "outputs": [],
      "stateMutability": "nonpayable",
      "type": "function"
    },
    {
      "inputs": [
        {
          "internalType": "uint256",
          "name": "",
          "type": "uint256"
        }
      ],
      "name": "resolvedCases",
      "outputs": [
        {
          "internalType": "uint256",
          "name": "",
          "type": "uint256"
        }
      ],
      "stateMutability": "view",
      "type": "function"
    },
    {
      "inputs": [
        {
          "internalType": "address",
          "name": "_officer",
          "type": "address"
        }
      ],
      "name": "setOfficerAddress",
      "outputs": [],
      "stateMutability": "nonpayable",
      "type": "function"
    }
  ],
  "bytecode": "0x60806040523480156200001157600080fd5b5060405162001ee038038062001ee0833981810160405281019062000037919062000131565b33600160006101000a81548173ffffffffffffffffffffffffffffffffffffffff021916908373ffffffffffffffffffffffffffffffffffffffff160217905550806000806101000a81548173ffffffffffffffffffffffffffffffffffffffff021916908373ffffffffffffffffffffffffffffffffffffffff16021790555060016002819055505062000163565b600080fd5b600073ffffffffffffffffffffffffffffffffffffffff82169050919050565b6000620000f982620000cc565b9050919050565b6200010b81620000ec565b81146200011757600080fd5b50565b6000815190506200012b8162000100565b92915050565b6000602082840312156200014a5762000149620000c7565b5b60006200015a848285016200011a565b91505092915050565b611d6d80620001736000396000f3fe608060405234801561001057600080fd5b50600436106100f55760003560e01c80636d1727e911610097578063bc685ce011610066578063bc685ce014610252578063cc91163514610270578063d20320421461027a578063fecc102114610296576100f5565b80636d1727e9146101c45780638da5cb5b146101e05780639f2b37b0146101fe578063b09cc42714610236576100f5565b80633c5f15e7116100d35780633c5f15e71461012a5780634de1c8c31461014657806361b8ce8c14610176578063686b656e14610194576100f5565b80632071be7f146100fa57806326019e7f14610104578063346fed1014610120575b600080fd5b6101026102c6565b005b61011e600480360381019061011991906112dd565b61036a565b005b61012861058d565b005b610144600480360381019061013f9190611397565b610698565b005b610160600480360381019061015b91906113c4565b61076b565b60405161016d9190611400565b60405180910390f35b61017e61078f565b60405161018b9190611400565b60405180910390f35b6101ae60048036038101906101a991906113c4565b610795565b6040516101bb9190611400565b60405180910390f35b6101de60048036038101906101d9919061141b565b6107b9565b005b6101e8610983565b6040516101f591906114a2565b60405180910390f35b610218600480360381019061021391906113c4565b6109a9565b60405161022d99989796959493929190611557565b60405180910390f35b610250600480360381019061024b91906112dd565b610c5e565b005b61025a610e36565b60405161026791906114a2565b60405180910390f35b610278610e5a565b005b610294600480360381019061028f91906112dd565b610f32565b005b6102b060048036038101906102ab91906113c4565b6110eb565b6040516102bd9190611400565b60405180910390f35b600560006102d4919061110f565b6000600190505b60025481101561036757600115156006600083815260200190815260200160002060060160019054906101000a900460ff16151503610354576005600660008381526020019081526020016000206000015490806001815401808255809150506001900390600052602060002001600090919091909150555b808061035f9061162f565b9150506102db565b50565b60008054906101000a900473ffffffffffffffffffffffffffffffffffffffff1673ffffffffffffffffffffffffffffffffffffffff163373ffffffffffffffffffffffffffffffffffffffff16146103f8576040517f08c379a00000000000000000000000000000000000000000000000000000000081526004016103ef906116e9565b60405180910390fd5b600115156006600084815260200190815260200160002060060160029054906101000a900460ff16151514610462576040517f08c379a000000000000000000000000000000000000000000000000000000000815260040161045990611755565b60405180910390fd5b600115156006600084815260200190815260200160002060060160009054906101000a900460ff161515146104cc576040517f08c379a00000000000000000000000000000000000000000000000000000000081526004016104c3906117c1565b60405180910390fd5b600015156006600084815260200190815260200160002060060160019054906101000a900460ff16151514610536576040517f08c379a000000000000000000000000000000000000000000000000000000000815260040161052d9061182d565b60405180910390fd5b60016006600084815260200190815260200160002060060160016101000a81548160ff021916908315150217905550806006600084815260200190815260200160002060050190816105889190611a59565b505050565b6004600061059b919061110f565b6000600190505b60025481101561069557600015156006600083815260200190815260200160002060060160019054906101000a900460ff16151514801561060a5750600115156006600083815260200190815260200160002060060160009054906101000a900460ff161515145b801561063d5750600115156006600083815260200190815260200160002060060160029054906101000a900460ff161515145b15610682576004600660008381526020019081526020016000206000015490806001815401808255809150506001900390600052602060002001600090919091909150555b808061068d9061162f565b9150506105a2565b50565b600160009054906101000a900473ffffffffffffffffffffffffffffffffffffffff1673ffffffffffffffffffffffffffffffffffffffff163373ffffffffffffffffffffffffffffffffffffffff1614610728576040517f08c379a000000000000000000000000000000000000000000000000000000000815260040161071f90611b9d565b60405180910390fd5b806000806101000a81548173ffffffffffffffffffffffffffffffffffffffff021916908373ffffffffffffffffffffffffffffffffffffffff16021790555050565b6005818154811061077b57600080fd5b906000526020600020016000915090505481565b60025481565b600381815481106107a557600080fd5b906000526020600020016000915090505481565b600060066000600254815260200190815260200160002090506002548160000181905550338160010160006101000a81548173ffffffffffffffffffffffffffffffffffffffff021916908373ffffffffffffffffffffffffffffffffffffffff160217905550828160020190816108319190611a59565b50818160030190816108439190611a59565b506040518060400160405280601081526020017f50656e64696e6720417070726f76616c0000000000000000000000000000000081525081600401908161088a9190611a59565b506040518060400160405280601281526020017f50656e64696e67205265736f6c7574696f6e00000000000000000000000000008152508160050190816108d19190611a59565b5060008160060160006101000a81548160ff02191690831515021790555060008160060160016101000a81548160ff02191690831515021790555060018160060160026101000a81548160ff0219169083151502179055507fdeb4e2a7c73777ecde924d94281fa19efd33da9ff6f4e0c7ede16fa01fa3051d600254338560405161095e93929190611bbd565b60405180910390a1600260008154809291906109799061162f565b9190505550505050565b600160009054906101000a900473ffffffffffffffffffffffffffffffffffffffff1681565b60066020528060005260406000206000915090508060000154908060010160009054906101000a900473ffffffffffffffffffffffffffffffffffffffff16908060020180546109f89061187c565b80601f0160208091040260200160405190810160405280929190818152602001828054610a249061187c565b8015610a715780601f10610a4657610100808354040283529160200191610a71565b820191906000526020600020905b815481529060010190602001808311610a5457829003601f168201915b505050505090806003018054610a869061187c565b80601f0160208091040260200160405190810160405280929190818152602001828054610ab29061187c565b8015610aff5780601f10610ad457610100808354040283529160200191610aff565b820191906000526020600020905b815481529060010190602001808311610ae257829003601f168201915b505050505090806004018054610b149061187c565b80601f0160208091040260200160405190810160405280929190818152602001828054610b409061187c565b8015610b8d5780601f10610b6257610100808354040283529160200191610b8d565b820191906000526020600020905b815481529060010190602001808311610b7057829003601f168201915b505050505090806005018054610ba29061187c565b80601f0160208091040260200160405190810160405280929190818152602001828054610bce9061187c565b8015610c1b5780601f10610bf057610100808354040283529160200191610c1b565b820191906000526020600020905b815481529060010190602001808311610bfe57829003601f168201915b5050505050908060060160009054906101000a900460ff16908060060160019054906101000a900460ff16908060060160029054906101000a900460ff16905089565b60008054906101000a900473ffffffffffffffffffffffffffffffffffffffff1673ffffffffffffffffffffffffffffffffffffffff163373ffffffffffffffffffffffffffffffffffffffff1614610cec576040517f08c379a0000000000000000000000000000000000000000000000000000000008152600401610ce3906116e9565b60405180910390fd5b600115156006600084815260200190815260200160002060060160029054906101000a900460ff16151514610d56576040517f08c379a0000000000000000000000000000000000000000000000000000000008152600401610d4d90611755565b60405180910390fd5b600015156006600084815260200190815260200160002060060160009054906101000a900460ff16151514610dc0576040517f08c379a0000000000000000000000000000000000000000000000000000000008152600401610db790611c47565b60405180910390fd5b60006006600084815260200190815260200160002060060160026101000a81548160ff02191690831515021790555080604051602001610e009190611d15565b604051602081830303815290604052600660008481526020019081526020016000206004019081610e319190611a59565b505050565b60008054906101000a900473ffffffffffffffffffffffffffffffffffffffff1681565b60036000610e68919061110f565b6000600190505b600254811015610f2f57600015156006600083815260200190815260200160002060060160009054906101000a900460ff161515148015610ed75750600115156006600083815260200190815260200160002060060160029054906101000a900460ff161515145b15610f1c576003600660008381526020019081526020016000206000015490806001815401808255809150506001900390600052602060002001600090919091909150555b8080610f279061162f565b915050610e6f565b50565b60008054906101000a900473ffffffffffffffffffffffffffffffffffffffff1673ffffffffffffffffffffffffffffffffffffffff163373ffffffffffffffffffffffffffffffffffffffff1614610fc0576040517f08c379a0000000000000000000000000000000000000000000000000000000008152600401610fb7906116e9565b60405180910390fd5b600115156006600084815260200190815260200160002060060160029054906101000a900460ff1615151461102a576040517f08c379a000000000000000000000000000000000000000000000000000000000815260040161102190611755565b60405180910390fd5b600015156006600084815260200190815260200160002060060160009054906101000a900460ff16151514611094576040517f08c379a000000000000000000000000000000000000000000000000000000000815260040161108b90611c47565b60405180910390fd5b60016006600084815260200190815260200160002060060160006101000a81548160ff021916908315150217905550806006600084815260200190815260200160002060040190816110e69190611a59565b505050565b600481815481106110fb57600080fd5b906000526020600020016000915090505481565b508054600082559060005260206000209081019061112d9190611130565b50565b5b80821115611149576000816000905550600101611131565b5090565b6000604051905090565b600080fd5b600080fd5b6000819050919050565b61117481611161565b811461117f57600080fd5b50565b6000813590506111918161116b565b92915050565b600080fd5b600080fd5b6000601f19601f8301169050919050565b7f4e487b7100000000000000000000000000000000000000000000000000000000600052604160045260246000fd5b6111ea826111a1565b810181811067ffffffffffffffff82111715611209576112086111b2565b5b80604052505050565b600061121c61114d565b905061122882826111e1565b919050565b600067ffffffffffffffff821115611248576112476111b2565b5b611251826111a1565b9050602081019050919050565b82818337600083830152505050565b600061128061127b8461122d565b611212565b90508281526020810184848401111561129c5761129b61119c565b5b6112a784828561125e565b509392505050565b600082601f8301126112c4576112c3611197565b5b81356112d484826020860161126d565b91505092915050565b600080604083850312156112f4576112f3611157565b5b600061130285828601611182565b925050602083013567ffffffffffffffff8111156113235761132261115c565b5b61132f858286016112af565b9150509250929050565b600073ffffffffffffffffffffffffffffffffffffffff82169050919050565b600061136482611339565b9050919050565b61137481611359565b811461137f57600080fd5b50565b6000813590506113918161136b565b92915050565b6000602082840312156113ad576113ac611157565b5b60006113bb84828501611382565b91505092915050565b6000602082840312156113da576113d9611157565b5b60006113e884828501611182565b91505092915050565b6113fa81611161565b82525050565b600060208201905061141560008301846113f1565b92915050565b6000806040838503121561143257611431611157565b5b600083013567ffffffffffffffff8111156114505761144f61115c565b5b61145c858286016112af565b925050602083013567ffffffffffffffff81111561147d5761147c61115c565b5b611489858286016112af565b9150509250929050565b61149c81611359565b82525050565b60006020820190506114b76000830184611493565b92915050565b600081519050919050565b600082825260208201905092915050565b60005b838110156114f75780820151818401526020810190506114dc565b60008484015250505050565b600061150e826114bd565b61151881856114c8565b93506115288185602086016114d9565b611531816111a1565b840191505092915050565b60008115159050919050565b6115518161153c565b82525050565b60006101208201905061156d600083018c6113f1565b61157a602083018b611493565b818103604083015261158c818a611503565b905081810360608301526115a08189611503565b905081810360808301526115b48188611503565b905081810360a08301526115c88187611503565b90506115d760c0830186611548565b6115e460e0830185611548565b6115f2610100830184611548565b9a9950505050505050505050565b7f4e487b7100000000000000000000000000000000000000000000000000000000600052601160045260246000fd5b600061163a82611161565b91507fffffffffffffffffffffffffffffffffffffffffffffffffffffffffffffffff820361166c5761166b611600565b5b600182019050919050565b7f596f7520617265206e6f742072656769737465726564206f666669636572206f60008201527f66207468697320736d61727420636f6e74726163740000000000000000000000602082015250565b60006116d36035836114c8565b91506116de82611677565b604082019050919050565b60006020820190508181036000830152611702816116c6565b9050919050565b7f5468697320636f6d706c61696e7420696420646f6573206e6f74206578697374600082015250565b600061173f6020836114c8565b915061174a82611709565b602082019050919050565b6000602082019050818103600083015261176e81611732565b9050919050565b7f436f6d706c61696e74206973206e6f742079657420617070726f766564000000600082015250565b60006117ab601d836114c8565b91506117b682611775565b602082019050919050565b600060208201905081810360008301526117da8161179e565b9050919050565b7f436f6d706c61696e7420697320616c7265616479207265736f6c766564000000600082015250565b6000611817601d836114c8565b9150611822826117e1565b602082019050919050565b600060208201905081810360008301526118468161180a565b9050919050565b7f4e487b7100000000000000000000000000000000000000000000000000000000600052602260045260246000fd5b6000600282049050600182168061189457607f821691505b6020821081036118a7576118a661184d565b5b50919050565b60008190508160005260206000209050919050565b60006020601f8301049050919050565b600082821b905092915050565b60006008830261190f7fffffffffffffffffffffffffffffffffffffffffffffffffffffffffffffffff826118d2565b61191986836118d2565b95508019841693508086168417925050509392505050565b6000819050919050565b600061195661195161194c84611161565b611931565b611161565b9050919050565b6000819050919050565b6119708361193b565b61198461197c8261195d565b8484546118df565b825550505050565b600090565b61199961198c565b6119a4818484611967565b505050565b5b818110156119c8576119bd600082611991565b6001810190506119aa565b5050565b601f821115611a0d576119de816118ad565b6119e7846118c2565b810160208510156119f6578190505b611a0a611a02856118c2565b8301826119a9565b50505b505050565b600082821c905092915050565b6000611a3060001984600802611a12565b1980831691505092915050565b6000611a498383611a1f565b9150826002028217905092915050565b611a62826114bd565b67ffffffffffffffff811115611a7b57611a7a6111b2565b5b611a85825461187c565b611a908282856119cc565b600060209050601f831160018114611ac35760008415611ab1578287015190505b611abb8582611a3d565b865550611b23565b601f198416611ad1866118ad565b60005b82811015611af957848901518255600182019150602085019450602081019050611ad4565b86831015611b165784890151611b12601f891682611a1f565b8355505b6001600288020188555050505b505050505050565b7f596f7520617265206e6f7420746865206f776e6572206f66207468697320736d60008201527f61727420636f6e74726163740000000000000000000000000000000000000000602082015250565b6000611b87602c836114c8565b9150611b9282611b2b565b604082019050919050565b60006020820190508181036000830152611bb681611b7a565b9050919050565b6000606082019050611bd260008301866113f1565b611bdf6020830185611493565b8181036040830152611bf18184611503565b9050949350505050565b7f436f6d706c61696e7420697320616c726561647920617070726f766564000000600082015250565b6000611c31601d836114c8565b9150611c3c82611bfb565b602082019050919050565b60006020820190508181036000830152611c6081611c24565b9050919050565b600081905092915050565b7f5468697320636f6d706c61696e742069732072656a65637465642e205265617360008201527f6f6e3a2000000000000000000000000000000000000000000000000000000000602082015250565b6000611cce602483611c67565b9150611cd982611c72565b602482019050919050565b6000611cef826114bd565b611cf98185611c67565b9350611d098185602086016114d9565b80840191505092915050565b6000611d2082611cc1565b9150611d2c8284611ce4565b91508190509291505056fea264697066735822122019094c77cd6db2bc8308c2ba8d1ed0136bfc5328121a5428e8014768723eb57764736f6c63430008110033",
  "linkReferences": {},
  "deployedLinkReferences": {}
}